{
  "contractName": "BIoTCM",
  "abi": [
    {
      "inputs": [],
      "stateMutability": "nonpayable",
      "type": "constructor"
    },
    {
      "anonymous": false,
      "inputs": [
        {
          "indexed": false,
          "internalType": "address",
          "name": "Consumer",
          "type": "address"
        },
        {
          "indexed": false,
          "internalType": "string",
          "name": "message",
          "type": "string"
        }
      ],
      "name": "ConsumerRegisterProductEvent",
      "type": "event"
    },
    {
      "anonymous": false,
      "inputs": [
        {
          "indexed": false,
          "internalType": "uint256",
          "name": "id",
          "type": "uint256"
        },
        {
          "indexed": false,
          "internalType": "string",
          "name": "description",
          "type": "string"
        },
        {
          "indexed": false,
          "internalType": "uint256[]",
          "name": "price",
          "type": "uint256[]"
        },
        {
          "indexed": false,
          "internalType": "uint256[]",
          "name": "boundedError",
          "type": "uint256[]"
        },
        {
          "indexed": false,
          "internalType": "address",
          "name": "owner",
          "type": "address"
        }
      ],
      "name": "ContentProductCreated",
      "type": "event"
    },
    {
      "anonymous": false,
      "inputs": [
        {
          "indexed": false,
          "internalType": "uint256",
          "name": "id",
          "type": "uint256"
        },
        {
          "indexed": false,
          "internalType": "string",
          "name": "description",
          "type": "string"
        },
        {
          "indexed": false,
          "internalType": "uint256",
          "name": "price",
          "type": "uint256"
        },
        {
          "indexed": false,
          "internalType": "uint256",
          "name": "boundedError",
          "type": "uint256"
        },
        {
          "indexed": false,
          "internalType": "address payable",
          "name": "owner",
          "type": "address"
        },
        {
          "indexed": false,
          "internalType": "address",
          "name": "Consumer",
          "type": "address"
        },
        {
          "indexed": false,
          "internalType": "string",
          "name": "ConsumerPubliceKey",
          "type": "string"
        }
      ],
      "name": "ProductContentPurchased",
      "type": "event"
    },
    {
      "anonymous": false,
      "inputs": [
        {
          "indexed": false,
          "internalType": "string",
          "name": "fileHash",
          "type": "string"
        }
      ],
      "name": "ProductContentQuery",
      "type": "event"
    },
    {
      "anonymous": false,
      "inputs": [
        {
          "indexed": false,
          "internalType": "uint256",
          "name": "id",
          "type": "uint256"
        },
        {
          "indexed": false,
          "internalType": "address",
          "name": "owner",
          "type": "address"
        },
        {
          "indexed": false,
          "internalType": "address",
          "name": "Consumer",
          "type": "address"
        }
      ],
      "name": "ProductContentSend",
      "type": "event"
    },
    {
      "inputs": [],
      "name": "ContentProductCount",
      "outputs": [
        {
          "internalType": "uint256",
          "name": "",
          "type": "uint256"
        }
      ],
      "stateMutability": "view",
      "type": "function",
      "constant": true
    },
    {
      "inputs": [],
      "name": "contractCreator",
      "outputs": [
        {
          "internalType": "address",
          "name": "",
          "type": "address"
        }
      ],
      "stateMutability": "view",
      "type": "function",
      "constant": true
    },
    {
      "inputs": [
        {
          "internalType": "string",
          "name": "_description",
          "type": "string"
        },
        {
          "internalType": "uint256[]",
          "name": "_price",
          "type": "uint256[]"
        },
        {
          "internalType": "uint256[]",
          "name": "_boundedError",
          "type": "uint256[]"
        }
      ],
      "name": "dataOwnerCreateContentProduct",
      "outputs": [],
      "stateMutability": "nonpayable",
      "type": "function"
    },
    {
      "inputs": [
        {
          "internalType": "string",
          "name": "_publicKey",
          "type": "string"
        }
      ],
      "name": "consumerRegisterProduct",
      "outputs": [
        {
          "internalType": "address",
          "name": "",
          "type": "address"
        }
      ],
      "stateMutability": "nonpayable",
      "type": "function"
    },
    {
      "inputs": [
        {
          "internalType": "uint256",
          "name": "_id",
          "type": "uint256"
        }
      ],
      "name": "purchaseProductContent",
      "outputs": [],
      "stateMutability": "payable",
      "type": "function",
      "payable": true
    },
    {
      "inputs": [
        {
          "internalType": "uint256",
          "name": "_id",
          "type": "uint256"
        },
        {
          "internalType": "string",
          "name": "_fileHash",
          "type": "string"
        },
        {
          "internalType": "address",
          "name": "_Consumer",
          "type": "address"
        }
      ],
      "name": "sendProductContent",
      "outputs": [],
      "stateMutability": "nonpayable",
      "type": "function"
    },
    {
      "inputs": [
        {
          "internalType": "uint256",
          "name": "_id",
          "type": "uint256"
        }
      ],
      "name": "queryProductContent",
      "outputs": [],
      "stateMutability": "nonpayable",
      "type": "function"
    },
    {
      "inputs": [
        {
          "internalType": "uint256",
          "name": "_id",
          "type": "uint256"
        }
      ],
      "name": "getProductInfo",
      "outputs": [
        {
          "internalType": "uint256",
          "name": "id",
          "type": "uint256"
        },
        {
          "internalType": "string",
          "name": "",
          "type": "string"
        },
        {
          "internalType": "uint256[]",
          "name": "",
          "type": "uint256[]"
        },
        {
          "internalType": "uint256[]",
          "name": "",
          "type": "uint256[]"
        },
        {
          "internalType": "address",
          "name": "",
          "type": "address"
        }
      ],
      "stateMutability": "view",
      "type": "function",
      "constant": true
    }
  ],
  "bytecode": "0x6080604052600060015534801561001557600080fd5b50336000806101000a81548173ffffffffffffffffffffffffffffffffffffffff021916908373ffffffffffffffffffffffffffffffffffffffff160217905550611498806100656000396000f3fe60806040526004361061007b5760003560e01c80633f1b75c51161004e5780633f1b75c5146103fd57806379a85e6c146104ef5780638881ea341461066d578063ef4058ea146106985761007b565b8063065d94aa146100805780631046f75b146100ae5780631844ce291461029e5780631e2f73b1146103a6575b600080fd5b6100ac6004803603602081101561009657600080fd5b81019080803590602001909291905050506106d3565b005b3480156100ba57600080fd5b5061029c600480360360608110156100d157600080fd5b81019080803590602001906401000000008111156100ee57600080fd5b82018360208201111561010057600080fd5b8035906020019184600183028401116401000000008311171561012257600080fd5b91908080601f016020809104026020016040519081016040528093929190818152602001838380828437600081840152601f19601f8201169050808301925050505050505091929192908035906020019064010000000081111561018557600080fd5b82018360208201111561019757600080fd5b803590602001918460208302840111640100000000831117156101b957600080fd5b919080806020026020016040519081016040528093929190818152602001838360200280828437600081840152601f19601f8201169050808301925050505050505091929192908035906020019064010000000081111561021957600080fd5b82018360208201111561022b57600080fd5b8035906020019184602083028401116401000000008311171561024d57600080fd5b919080806020026020016040519081016040528093929190818152602001838360200280828437600081840152601f19601f820116905080830192505050505050509192919290505050610a89565b005b3480156102aa57600080fd5b50610364600480360360208110156102c157600080fd5b81019080803590602001906401000000008111156102de57600080fd5b8201836020820111156102f057600080fd5b8035906020019184600183028401116401000000008311171561031257600080fd5b91908080601f016020809104026020016040519081016040528093929190818152602001838380828437600081840152601f19601f820116905080830192505050505050509192919290505050610d09565b604051808273ffffffffffffffffffffffffffffffffffffffff1673ffffffffffffffffffffffffffffffffffffffff16815260200191505060405180910390f35b3480156103b257600080fd5b506103bb610ed1565b604051808273ffffffffffffffffffffffffffffffffffffffff1673ffffffffffffffffffffffffffffffffffffffff16815260200191505060405180910390f35b34801561040957600080fd5b506104ed6004803603606081101561042057600080fd5b81019080803590602001909291908035906020019064010000000081111561044757600080fd5b82018360208201111561045957600080fd5b8035906020019184600183028401116401000000008311171561047b57600080fd5b91908080601f016020809104026020016040519081016040528093929190818152602001838380828437600081840152601f19601f820116905080830192505050505050509192919290803573ffffffffffffffffffffffffffffffffffffffff169060200190929190505050610ef6565b005b3480156104fb57600080fd5b506105286004803603602081101561051257600080fd5b8101908080359060200190929190505050611002565b604051808681526020018060200180602001806020018573ffffffffffffffffffffffffffffffffffffffff1673ffffffffffffffffffffffffffffffffffffffff168152602001848103845288818151815260200191508051906020019080838360005b838110156105a857808201518184015260208101905061058d565b50505050905090810190601f1680156105d55780820380516001836020036101000a031916815260200191505b50848103835287818151815260200191508051906020019060200280838360005b838110156106115780820151818401526020810190506105f6565b50505050905001848103825286818151815260200191508051906020019060200280838360005b83811015610653578082015181840152602081019050610638565b505050509050019850505050505050505060405180910390f35b34801561067957600080fd5b506106826111f1565b6040518082815260200191505060405180910390f35b3480156106a457600080fd5b506106d1600480360360208110156106bb57600080fd5b81019080803590602001909291905050506111f7565b005b6000600260008381526020019081526020016000209050600080600090505b82600201805490508110156107a6573483600201828154811061071157fe5b906000526020600020015414156107995760018360040160003373ffffffffffffffffffffffffffffffffffffffff1673ffffffffffffffffffffffffffffffffffffffff16815260200190815260200160002060006101000a81548160ff02191690831515021790555082600301818154811061078b57fe5b906000526020600020015491505b80806001019150506106f2565b50600115158260040160003373ffffffffffffffffffffffffffffffffffffffff1673ffffffffffffffffffffffffffffffffffffffff16815260200190815260200160002060009054906101000a900460ff1615151415610a7f5760008260060160009054906101000a900473ffffffffffffffffffffffffffffffffffffffff1690508073ffffffffffffffffffffffffffffffffffffffff166108fc349081150290604051600060405180830381858888f19350505050158015610871573d6000803e3d6000fd5b507f2f621b09a27146bfc1fc4b14d9c48e003f2b7f5b37472a06b6be655b9042745b848460010134858533600360003373ffffffffffffffffffffffffffffffffffffffff1673ffffffffffffffffffffffffffffffffffffffff16815260200190815260200160002060000160405180888152602001806020018781526020018681526020018573ffffffffffffffffffffffffffffffffffffffff1673ffffffffffffffffffffffffffffffffffffffff1681526020018473ffffffffffffffffffffffffffffffffffffffff1673ffffffffffffffffffffffffffffffffffffffff168152602001806020018381038352898181546001816001161561010002031660029004815260200191508054600181600116156101000203166002900480156109e15780601f106109b6576101008083540402835291602001916109e1565b820191906000526020600020905b8154815290600101906020018083116109c457829003601f168201915b5050838103825284818154600181600116156101000203166002900481526020019150805460018160011615610100020316600290048015610a645780601f10610a3957610100808354040283529160200191610a64565b820191906000526020600020905b815481529060010190602001808311610a4757829003601f168201915b5050995050505050505050505060405180910390a150610a84565b600080fd5b505050565b60016000815480929190600101919050555060015460026000600154815260200190815260200160002060000181905550826002600060015481526020019081526020016000206001019080519060200190610ae6929190611370565b50816002600060015481526020019081526020016000206002019080519060200190610b139291906113f0565b50806002600060015481526020019081526020016000206003019080519060200190610b409291906113f0565b503360026000600154815260200190815260200160002060060160006101000a81548173ffffffffffffffffffffffffffffffffffffffff021916908373ffffffffffffffffffffffffffffffffffffffff1602179055507fdfead977cf9e15102974c9088fab1b3f543b13f88c9d7fd62cd672357dacc06160015484848433604051808681526020018060200180602001806020018573ffffffffffffffffffffffffffffffffffffffff1673ffffffffffffffffffffffffffffffffffffffff168152602001848103845288818151815260200191508051906020019080838360005b83811015610c40578082015181840152602081019050610c25565b50505050905090810190601f168015610c6d5780820380516001836020036101000a031916815260200191505b50848103835287818151815260200191508051906020019060200280838360005b83811015610ca9578082015181840152602081019050610c8e565b50505050905001848103825286818151815260200191508051906020019060200280838360005b83811015610ceb578082015181840152602081019050610cd0565b505050509050019850505050505050505060405180910390a1505050565b600080600360003373ffffffffffffffffffffffffffffffffffffffff1673ffffffffffffffffffffffffffffffffffffffff16815260200190815260200160002060000180546001816001161561010002031660029004905014610dd6576040517f08c379a000000000000000000000000000000000000000000000000000000000815260040180806020018281038252601b8152602001807f436f6e73756d657220416c72656164792052656769737465726564000000000081525060200191505060405180910390fd5b81600360003373ffffffffffffffffffffffffffffffffffffffff1673ffffffffffffffffffffffffffffffffffffffff1681526020019081526020016000206000019080519060200190610e2c929190611370565b507fb4ae5cd46d39b50fcd183c4618b42ad70bb37e5e5367ec4a6d6d70bc5e43bc7333604051808273ffffffffffffffffffffffffffffffffffffffff1673ffffffffffffffffffffffffffffffffffffffff16815260200180602001828103825260168152602001807f53756365737366756c6c792052656769737465726564000000000000000000008152506020019250505060405180910390a1339050919050565b6000809054906101000a900473ffffffffffffffffffffffffffffffffffffffff1681565b816002600085815260200190815260200160002060050160008373ffffffffffffffffffffffffffffffffffffffff1673ffffffffffffffffffffffffffffffffffffffff1681526020019081526020016000209080519060200190610f5d929190611370565b507fc420b63bce3a029f90e3433859a75370ed49ae6c69a80090e1536311fece8cc2833383604051808481526020018373ffffffffffffffffffffffffffffffffffffffff1673ffffffffffffffffffffffffffffffffffffffff1681526020018273ffffffffffffffffffffffffffffffffffffffff1673ffffffffffffffffffffffffffffffffffffffff168152602001935050505060405180910390a1505050565b60006060806060600060026000878152602001908152602001600020600001546002600088815260200190815260200160002060010160026000898152602001908152602001600020600201600260008a8152602001908152602001600020600301600260008b815260200190815260200160002060060160009054906101000a900473ffffffffffffffffffffffffffffffffffffffff16838054600181600116156101000203166002900480601f0160208091040260200160405190810160405280929190818152602001828054600181600116156101000203166002900480156111305780601f1061110557610100808354040283529160200191611130565b820191906000526020600020905b81548152906001019060200180831161111357829003601f168201915b505050505093508280548060200260200160405190810160405280929190818152602001828054801561118257602002820191906000526020600020905b81548152602001906001019080831161116e575b50505050509250818054806020026020016040519081016040528092919081815260200182805480156111d457602002820191906000526020600020905b8154815260200190600101908083116111c0575b505050505091508090509450945094509450945091939590929450565b60015481565b6000600260008381526020019081526020016000209050600115158160040160003373ffffffffffffffffffffffffffffffffffffffff1673ffffffffffffffffffffffffffffffffffffffff16815260200190815260200160002060009054906101000a900460ff1615151415611367577faf35b3918f1e5a0f09a78940bc0b82962757a2f3466f7589b330b75760d5aea78160050160003373ffffffffffffffffffffffffffffffffffffffff1673ffffffffffffffffffffffffffffffffffffffff16815260200190815260200160002060405180806020018281038252838181546001816001161561010002031660029004815260200191508054600181600116156101000203166002900480156113545780601f1061132957610100808354040283529160200191611354565b820191906000526020600020905b81548152906001019060200180831161133757829003601f168201915b50509250505060405180910390a161136c565b600080fd5b5050565b828054600181600116156101000203166002900490600052602060002090601f016020900481019282601f106113b157805160ff19168380011785556113df565b828001600101855582156113df579182015b828111156113de5782518255916020019190600101906113c3565b5b5090506113ec919061143d565b5090565b82805482825590600052602060002090810192821561142c579160200282015b8281111561142b578251825591602001919060010190611410565b5b509050611439919061143d565b5090565b61145f91905b8082111561145b576000816000905550600101611443565b5090565b9056fea26469706673582212209096bc06d6e2e7fc57a499e179c115c142f56f69ef34b78e50751a55cfc68d5e64736f6c63430006000033",
  "source": "pragma solidity >=0.4.22 <0.8.0;\n\ncontract BIoTCM {\n    \n    struct ContentProduct{\n        uint id;\n        string description;\n        uint[] price;\n        uint[] boundedError;\n        mapping(address=>bool) accessList;\n        mapping(address=>string) ContentProductHash;\n        address payable owner;\n    }\n    \n    struct Consumer {\n        string publicKey;\n    }\n    \n    address public contractCreator;\n    uint public ContentProductCount = 0;\n    mapping(uint => ContentProduct) private ContentProducts;\n    mapping(address => Consumer) private ConsumerMap;\n    \n     constructor () public {\n        contractCreator = msg.sender;\n    }\n    \n    event ContentProductCreated(uint id, string  description, uint[] price, uint[] boundedError ,address owner);\n    event ConsumerRegisterProductEvent(address Consumer , string message);\n    event ProductContentPurchased(uint id, string description, uint price , uint boundedError , address payable owner, address Consumer,string ConsumerPubliceKey);\n    event ProductContentSend(uint id,address owner,address Consumer);\n    event ProductContentQuery(string fileHash);\n    \n    function dataOwnerCreateContentProduct(string  memory _description, uint[] memory _price, uint[] memory _boundedError) public{\n        // Increment ContentProduct Count\n        ContentProductCount++;\n        // Create the ContentProduct\n        ContentProducts[ContentProductCount].id = ContentProductCount;\n        ContentProducts[ContentProductCount].description = _description;\n        ContentProducts[ContentProductCount].price = _price;\n        ContentProducts[ContentProductCount].boundedError = _boundedError;\n        ContentProducts[ContentProductCount].owner = msg.sender;\n        emit ContentProductCreated(ContentProductCount,_description,_price,_boundedError,msg.sender);\n    }\n    \n    function consumerRegisterProduct (string memory _publicKey) public returns (address) {\n        // check if consumer is already registered\n        require(bytes(ConsumerMap[msg.sender].publicKey).length == 0,\"Consumer Already Registered\");\n        ConsumerMap[msg.sender].publicKey = _publicKey;\n        emit ConsumerRegisterProductEvent(msg.sender,\"Sucessfully Registered\");\n        return msg.sender;\n    }\n    \n    function purchaseProductContent(uint _id) public payable{\n        ContentProduct storage _product = ContentProducts[_id];\n        uint _boundedError;\n        for (uint it =0 ; it < _product.price.length; it++ ){\n            if (_product.price[it] == msg.value ){\n                _product.accessList[msg.sender] = true;\n                _boundedError = _product.boundedError[it];\n            }\n        }\n        if (_product.accessList[msg.sender] == true){\n            address payable _owner = _product.owner;\n            payable(_owner).transfer(msg.value);\n            emit ProductContentPurchased(_id,_product.description,msg.value,_boundedError,_owner,msg.sender,ConsumerMap[msg.sender].publicKey);\n        }\n        else{\n            revert();\n        }\n    }\n\n    function sendProductContent(uint _id, string memory _fileHash, address _Consumer) public {\n        ContentProducts[_id].ContentProductHash[_Consumer] = _fileHash;\n        emit ProductContentSend(_id,msg.sender,_Consumer);\n    }\n    \n    function queryProductContent(uint _id) public {\n        ContentProduct storage _product = ContentProducts[_id];\n        if (_product.accessList[msg.sender] == true) {\n            emit ProductContentQuery(_product.ContentProductHash[msg.sender]);\n        }\n        else{\n            revert();\n        }\n    }\n    \n    function getProductInfo(uint _id) public view returns (uint id, string memory, uint[] memory , uint[] memory, address){\n        return (ContentProducts[_id].id,ContentProducts[_id].description,ContentProducts[_id].price,ContentProducts[_id].boundedError,ContentProducts[_id].owner);\n    }\n    \n}",
  "sourcePath": "D:/桌面/BlockChain/BEPDPP/contracts/contracts/BIoTCM.sol",
  "compiler": {
    "name": "solc",
    "version": "0.6.0+commit.26b70077.Emscripten.clang"
  },
  "schemaVersion": "3.3.4",
  "updatedAt": "2021-04-23T09:35:44.259Z",
  "networkType": "ethereum",
  "devdoc": {
    "methods": {}
  },
  "userdoc": {
    "methods": {}
  }
}